:100000000C942A000C943C000C943C000C943C0092
:100010000C943C000C943C000C943C000C943C0070
:100020000C943C000C943C000C9474010C949801CA
:100030000C943C000C943C000C943C000C943C0050
:100040000C943C000C943C000C943C000C943C0040
:100050000C943C0011241FBECFE5D8E0DEBFCDBF1D
:1000600020E0A0E6B0E001C01D92A936B207E1F79A
:100070000E9465010C9424020C9400004423B9F101
:10008000413009F06BC0813089F028F08230C9F02E
:10009000833011F108952AB381E090E002C0880F07
:1000A000991F6A95E2F7822B8ABB089527B381E0F6
:1000B00090E002C0880F991F6A95E2F7822B87BBF8
:1000C000089524B381E090E002C0880F991F6A95DB
:1000D000E2F7822B84BB089521B381E090E002C057
:1000E000880F991F6A95E2F7822B81BB08958130B2
:1000F00091F028F08230D9F0833029F108952AB3A5
:1001000081E090E002C0880F991F6A95E2F7809520
:1001100082238ABB089527B381E090E002C0880F54
:10012000991F6A95E2F78095822387BB089524B3CF
:1001300081E090E002C0880F991F6A95E2F78095F0
:10014000822384BB089521B381E090E002C0880F30
:10015000991F6A95E2F78095822381BB0895442315
:10016000B9F1413009F06BC0813089F028F082305C
:10017000C9F0833011F108952BB381E090E002C003
:10018000880F991F6A95E2F7822B8BBB089528B3DD
:1001900081E090E002C0880F991F6A95E2F7822BF8
:1001A00088BB089525B381E090E002C0880F991FB5
:1001B0006A95E2F7822B85BB089522B381E090E037
:1001C00002C0880F991F6A95E2F7822B82BB0895BF
:1001D000813091F028F08230D9F0833029F10895F0
:1001E0002BB381E090E002C0880F991F6A95E2F777
:1001F000809582238BBB089528B381E090E002C0F4
:10020000880F991F6A95E2F78095822388BB08952D
:1002100025B381E090E002C0880F991F6A95E2F74C
:100220008095822385BB089522B381E090E002C0CF
:10023000880F991F6A95E2F78095822382BB089503
:10024000813089F028F08230C9F0833011F10895AF
:100250002BB381E090E002C0880F991F6A95E2F706
:1002600082278BBB089528B381E090E002C0880FFD
:10027000991F6A95E2F7822788BB089525B381E02C
:1002800090E002C0880F991F6A95E2F7822785BB2C
:10029000089522B381E090E002C0880F991F6A950B
:1002A000E2F7822782BB089541E062E082E00E948B
:1002B0003E00089541E062E082E00E94AF000895B0
:1002C00062E082E00E94200108950E9454010E9491
:1002D0005A010E94E70168EE73E080E090E00E941E
:1002E000F8010E94F401FFCF1F920F920FB60F92F8
:1002F00011242F933F934F935F936F937F938F932B
:100300009F93AF93BF93EF93FF930E946001FF9180
:10031000EF91BF91AF919F918F917F916F915F917D
:100320004F913F912F910F900FBE0F901F901895F6
:100330001F920F920FB60F9211242F933F934F935A
:100340005F936F937F938F939F93AF93BF93EF933D
:10035000FF938091600090916100A0916200B09144
:1003600063000196A11DB11D809360009093610010
:10037000A0936200B09363004091640050916500C7
:10038000609166007091670084179507A607B7070C
:1003900069F48091680082BF109260001092610041
:1003A00010926200109263000E946001FF91EF9131
:1003B000BF91AF919F918F917F916F915F914F917D
:1003C0003F912F910F900FBE0F901F90189583B7FC
:1003D000886083BF83B78F7B83BF89B7826089BF03
:1003E0008FB780688FBF089583B7856083BF0895F6
:1003F0009B01AC01A8EEB3E00E940A02DC01CB0134
:10040000689415F8B695A795979587951694D1F7A2
:100410008CBF08950E941502A59F900DB49F900D6A
:10042000A49F800D911D11240895A29FB001B39F38
:10043000C001A39F700D811D1124911DB29F700DED
:0C044000811D1124911D0895F894FFCF38
:00000001FF
